:020000022000DC
:1060000000000120756302005D6302005F6302000F
:106010006163020063630200656302000000000028
:1060200000000000000000000000000067630200A4
:1060300069630200000000006B6302006D630200F0
:10604000DD6F02006F630200F17102006F630200F6
:106050006F6302006F630200797002001572020024
:106060006F6302006F6302006F6302006F630200E0
:106070006F6302006F6302006F6302006F630200D0
:106080006F630200F96402006F6302006F63020035
:10609000956502006F630200F18402006F630200E5
:1060A0006F6302006F6302006F6302006F630200A0
:1060B0006F6302006F630200000000000000000038
:1060C0006F6302006F6302006F6302006F63020080
:1060D0006F6302006F6302006F6302000000000044
:1060E00000000000000000000000000000000000B0
:1060F00000000000000000000000000000000000A0
:10610000000000000000000000000000000000008F
:10611000000000000000000000000000000000007F
:10612000000000000000000000000000000000006F
:10613000000000000000000000000000000000005F
:10614000000000000000000000000000000000004F
:10615000000000000000000000000000000000003F
:10616000000000000000000000000000000000002F
:10617000000000000000000000000000000000001F
:10618000000000000000000000000000000000000F
:1061900000000000000000000000000000000000FF
:1061A00000000000000000000000000000000000EF
:1061B00000000000000000000000000000000000DF
:1061C00000000000000000000000000000000000CF
:1061D00000000000000000000000000000000000BF
:1061E00000000000000000000000000000000000AF
:1061F000000000000000000000000000000000009F
:10620000354936480A1A02D0072291438D4634494F
:1062100034480A1A06D00722914381F309880222E2
:1062200082F3148830483149314A00F044F831484B
:106230003149324A00F03FF831483249324A00F0E1
:106240003AF832483249334A00F035F83248334997
:10625000334A00F030F833483349344A00F02BF821
:1062600033483449344A00F026F83448344900228F
:1062700000F02CF833483449002200F027F8334866
:106280003349091A082902DB002202604160314AC1
:1062900090471F481F49884205D00268043003B464
:1062A000904703BCF7E700208646EC46002000211B
:1062B000294A9047FEE7884207D0521A05D0037852
:1062C00001300B700131013AF9D17047884202D098
:1062D00002700130FAE770470000012000E0002062
:1062E0000000012000000120EC930200A81800200B
:1062F000C4180020D4630200D4630200609302003B
:10630000EC930200A8180020A81800208093020037
:106310008093020080930200809302008093020029
:10632000809302008093020080930200EC930200AD
:1063300008940200C4180020C4180020C4180020CB
:106340005C1B00205C1B0020601B0020601B0020E9
:10635000603B00209D630200CD7D0200FEE7FEE76A
:10636000FEE7FEE7FEE7FEE7FEE7FEE7FEE7FEE705
:10637000704700BF1048804710484FF0070188431E
:1063800085460F4880470F48016841F4700101605D
:10639000BFF34F8FBFF36F8FFFF732BF0A480B4930
:1063A0000B4A884207D0521A05D0037801300B708F
:1063B0000131013AF9D170477163020000000120F8
:1063C000296B020088ED00E080930200A8180020ED
:0463D000A8180020E9
:1063D40000487047541B00201FB50021039001AAF8
:1063E40044F20100CDE9011100F004F805B05DF8B4
:1063F40004FB000072B6094BD3F8F020D20700D595
:1064040000BEBFF34F8FD968054A01F4E0610A4327
:10641400DA60BFF34F8F00BFFDE700BF00ED00E07F
:106424000400FA05094B5A7899780132D2B29142A4
:1064340008BF0022197891421FBF027058781822B1
:1064440002FB003014BF043000207047C418002041
:1064540073B5054600240DF107000E468DF807407C
:1064640000F08EFA0DF10600FFF7DCFF90B1067024
:10647400094B9DF8062045605A709DF8070000F00E
:10648400A3FA24B9054B4FF48012C3F80021204627
:1064940002B070BD0424F0E7C418002000E100E05D
:1064A400024B4FF43C6043F0010318478093020011
:1064B40038B50C4B0C4C4FF40032C3F88020012546
:1064C4004FF48033C4F84833C4F808336560FFF7E9
:1064D400E7FF064BA56000241C60FFF7E1FF044BB7
:1064E4001C7038BD00E100E000100140E0190020FC
:1064F400D1190020F8B51F4B1F491B680025C1F8AE
:106504004051C1F84451C1F84851C1F84C51C1F847
:106514000051C1F804514BB3D1F804451749096837
:10652400641A24F07F442F461A68A24209D8A41A98
:1065340015441A7CDE691AB1D3E905201F7490470B
:10654400AEB90F4A0F4B11781B788B4205D101333A
:10655400DBB2022B08BF0023137012780A4B43F8F6
:1065640022500A4B4FF48012C3F80021F8BD334681
:10657400DAE700BFE419002000100140E019002010
:10658400DD190020DC190020D419002000E100E00E
:106594002DE9F04FA14AA24913780978A14D9942F7
:1065A40085B03CD00133DBB2022B08BF002313704B
:1065B4009D4912789D4B0F6853F822003B1823F035
:1065C4007F4300220B602B6816461446944613B989
:1065D40042B12B6006E0196881420ED902B12B60EA
:1065E400091A196001272B68DFF848A201934FF0BC
:1065F4000008BEB9DFF844B260E0401A0C44D96820
:10660400D3F81CE0C3F800C031B13A1922F07F423C
:10661400C3E90121DE611E4673460122D7E7002645
:106624003746E0E73446F6697F4B60681B68DFF85D
:1066340010C2A168C21A22F07F42624500F2A6800D
:106644000A442260012222742A680023C4E9013327
:10665400E361002A40F0A3802C60CAE79BF8021093
:106664005A1CD2B291428BF8002004BF00228BF84E
:106674000020182202FB03B32A6819799C680229B6
:1066840075D003297FD0012918D1207CB0B9D3E972
:106694000312A2605A69E2609A69654BA2611A7892
:1066A400002A18BF01466160BEE78C4200F0948066
:1066B4008946C9690029F8D1002323749BF8003066
:1066C4009BF801209A42C9D12B68B8F1000F04D17C
:1066D400019A9A4201D1002F43D0002B79D0D3F8EC
:1066E40000A0544D504BD5F804751C68DFF8548154
:1066F4003E1B98F8003026F07F4603369BB94FF4D2
:106704008033C5F84433C5F804334B4B4FF400329F
:106714004FF00109C3F880211A60C5F80090FFF713
:10672400BFFE88F80090B2452CBF5444A41924F04D
:106734007F44C5F84045D5F80435DB1B23F07F437F
:10674400E41B033324F07F44A3420AD9D5F804356B
:10675400C5F84035FFF7A4FE374B4FF40032C3F8B9
:106764000021334B00221A7005B0BDE8F08F1146AA
:1067740091469FE71174D2690123002AFAD1002BB4
:106784009CD02A609AE700231946F6E71B1A23F0E7
:106794007F438B4234BFCB1A0023236052E7216826
:1067A4001368994213D85B1A1360E26154E7091A1B
:1067B400D8691A4638B1034618688842F7D3401A94
:1067C4001860184613462160E061DC6111E7134646
:1067D400F2E7FFF76DFEC4E74C4511D1D3692B6096
:1067E40073B9DFF844E00120CDE90212CAF80800C9
:1067F400CEF800300E4B1870FFF752FEDDE902129E
:106804000B68C969C9F81C1011B1086803440B600E
:106814002B68934218BF4FF001084DE7DC190020A4
:10682400DD190020E4190020E0190020D41900200B
:10683400D01900200010014000E100E0C41800203D
:10684400FEFF7F00D119002010B5FFF731FE114B78
:1068540000200B2218809A700F4B18600F4B187091
:106864000F4B18700F4B4FF48012C021C3F88021D6
:1068740083F814131A6002F18042A2F56F221F24D8
:10688400C2F8084583F81113074BD2F804251A609F
:1068940010BD00BFC4180020E4190020DC1900203A
:1068A400DD19002000E100E0E0190020074B9B788F
:1068B4004BB132B128B10368187C20B959745A61BC
:1068C4007047072070470820704700BFC418002095
:1068D4002DE9F743DFF8848098F8023005460E4628
:1068E4001746ABB3A0B3042930D9436983B3437CBF
:1068F4000024012B0DF107000CBF8946A1468DF839
:10690400074000F03DF80DF10600FFF78BFDD8B10C
:10691400012303700F4B4560D3F80435C0E9049795
:10692400C0E902369DF8063088F801309DF807006A
:1069340000F04AF824B9084B4FF48012C3F8002140
:10694400204603B0BDE8F0830424EFE70724F7E70B
:106954000824F5E70010014000E100E0C41800201D
:10696400064A92783AB130B1426922B100220274E7
:106974000221FFF76DBD0820704700BFC418002036
:1069840070B5EFF3108672B60C4A946801239CB973
:1069940093600B4B0B4DD3F8801029401160C3F862
:1069A4008050D3F8841051604FF0FF32C3F8842034
:1069B400047006B962B670BD0370FAE7E8190020E6
:1069C40000E100E0FC06FFBD084B9A6810B55AB11F
:1069D40050B9EFF3108172B6054A1C6814605C6804
:1069E4005460986001B962B610BD00BFE819002078
:1069F40000E100E041DF7047064B10B500241C7035
:106A0400054B1C60BFF35F8F0449054800F032F862
:106A1400204610BDFC190020001A002088930200B3
:106A2400F419002007B500230DF107008DF8073095
:106A3400FFF7A6FFF1EE103A23F09F03E1EE103AC0
:106A4400BFF35F8F0A4B4022C3F884219DF80700EF
:106A5400FFF7BAFF01F030FD20B103B05DF804EB9D
:106A6400FFF7C8BF20BF40BF20BF03B05DF804FBE1
:106A740000E100E00B684A684360934208BF0023CA
:106A8400016008BF43607047436843B1026891687E
:106A940052680B449342436004BF00234360704731
:106AA400BFF34F8F0549064BCA6802F4E0621343F3
:106AB400CB60BFF34F8F00BFFDE700BF00ED00E0E8
:106AC4000400FA054FF0704393F8E02F062A10D122
:106AD400D3F8E42F12070CD1D3F8E80F00F0F00339
:106AE400302B08D000F0E000A0F140035842584198
:106AF400704700207047012070474FF0704393F8AF
:106B0400E02F062A0CD1D3F8E42F120708D1D3F8CA
:106B1400E80F00F0F000A0F13003584258417047EC
:106B24000020704708B5FFF7CDFF40B14FF0805308
:106B3400934AD3F82433C3F30423C2F84035FFF750
:106B4400DCFF10B18F4B904A5A67FFF7BBFF48B187
:106B54004FF080534FF08042D3F84432C3F34233B2
:106B6400C2F83C35FFF7C9FF30B1884AD2F8FC308F
:106B740023F08073C2F8FC30FFF7A4FF40B14FF05C
:106B840080430022C3F80C21C3F81021C3F8382530
:106B9400FFF7B3FF20B14FF080430322C3F8A025D1
:106BA400FFF7ABFF60B17A4B0522C3F81026012230
:106BB400C3F888260022C3F818263F22C3F81426F7
:106BC4004FF0704393F8E02F062A50D1D3F8E42F06
:106BD40010074CD1D3F8E83F03F0F003502B46D113
:106BE4004FF080526B4BD2F80414C3F82015D2F83E
:106BF4000814C3F82415D2F80C14C3F82815D2F8D5
:106C04001014C3F82C15D2F81414C3F83015D2F8A4
:106C14001814C3F83415D2F81C14C3F84015D2F86C
:106C24002014C3F84415D2F82414C3F84815D2F834
:106C34002814C3F84C15D2F82C14C3F85015D2F804
:106C44003014C3F85415D2F83414C3F86015D2F8CC
:106C54003814C3F86415D2F83C14C3F86815D2F894
:106C64004014C3F86C15D2F84424C3F87025FFF718
:106C740029FF48B14FF080534FF08042D3F8583287
:106C840003F04F03C2F8E43EFFF71CFF48B14FF096
:106C94008043D3F80024D10744BF6FF00102C3F846
:106CA40000244FF08053D3F83021062A0AD1D3F8B8
:106CB4003431062B01BF384AD2F83C3743F48063A1
:106CC400C2F83C37314AD2F8883043F47003C2F832
:106CD4008830BFF34F8FBFF36F8F4FF01023D3F87B
:106CE4000C22D2071DD52D4B0122C3F80425D3F85D
:106CF4000024002AFBD04FF01022D2F80C3223F0EB
:106D04000103C2F80C32254BD3F80024002AFBD02F
:106D14000022C3F80425D3F80024002AFBD0FFF78F
:106D2400BFFED3F80022002A03DBD3F80432002B81
:106D340022DA1A4B0122C3F80425D3F80024002ACE
:106D4400FBD04FF010221521C2F80012D3F8002412
:106D5400002AFBD04FF010231522C3F804220F4B56
:106D6400D3F80024002AFBD00022C3F80425D3F86A
:106D74000024002AFBD0D2E7094B0A4A1A6008BD56
:106D84000030014000C007400DF0ADBA00ED00E056
:106D94000050004000C000400010004000E00140EE
:106DA400A81800200090D003054A4FF0A043105CBF
:106DB400D3F8043523FA00F0C04300F00100704713
:106DC40094930200044B1A5C012393404FF0A042B9
:106DD400C2F80C35704700BF94930200044B1A5C50
:106DE400012393404FF0A042C2F80835704700BF1A
:106DF4009493020008B50020FFF7F0FF0120FFF78D
:106E0400EDFF0220FFF7EAFFBDE808400320FFF78B
:106E1400E5BF08B50020FFF7D5FF0120FFF7D2FF3B
:106E24000220FFF7CFFFBDE808400320FFF7CABFE9
:106E3400074A4FF0A041105CD1F80435012282408A
:106E440022EA03001340C1F80805C1F80C35704765
:106E54009493020038B5074C051E04F1080318BFCB
:106E64001C4623682BB11A6822605B682846984741
:106E7400F7E738BD0C1A002020B9054B01225A70DF
:106E8400FFF7E8BF012802D1014A9070F8E7704784
:106E9400041A002020B9034B01225A70FFF7DABF0D
:106EA400704700BF041A002038B50B4C237883B90F
:106EB4000A486360A3602361E36000F063F8054659
:106EC40001F0FAFA08B900F069F8012323702846A2
:106ED40038BD8525FBE700BF041A00207D6E020043
:106EE40037B50B4C00230DF107008DF80730FFF781
:106EF40047FDE368013BE360E56815B900F062F81B
:106F0400A5709DF80700FFF75FFD03B030BD00BF1B
:106F1400041A0020012813B508D003281CD018B97E
:106F2400114B0122C3F8802002B010BD0F4C002386
:106F34000DF107008DF80730FFF722FD23780BB918
:106F4400FFF7B2FFE3689DF807000133E360012314
:106F5400A370FFF739FDE7E700F020F802B0BDE8C1
:106F64001040FFF7BDBF00BF00E100E0041A00209D
:106F740000F18040002382B0036003680193019B09
:106F840002B07047044A137923B90121106091803B
:106F94001846704785207047181A0020084B1A6855
:106FA400D20706D4C02283F800230122C3F880212B
:106FB4001A604FF080430122C3F81825704700BFC0
:106FC40000E100E04FF080430122DA60D3F8182496
:106FD400D203FBD4704700004FF0804110B5D1F8C4
:106FE400003163B14FF48070FFF7C2FF0D4B587945
:106FF4000122C1F8082310B95A711B6898474FF051
:107004008042D2F8043163B14FF48270FFF7B0FFCD
:107014000223C2F80833034BBDE810401B6801206B
:10702400184710BD181A002000F1804000F5C04038
:10703400002382B0036003680193019B02B0704790
:10704400800000F1A040D0F8002722F44032C0F8BC
:107054000027D0F8003743EA0141C0F80017704711
:10706400C208012300F0070003FA00F08B5C184308
:10707400885470472DE9F04F87B00024584D03948D
:107084004FF48072012102F1804303F5C04390B2B2
:107094001B68012B06D1D5F804330B4202D0FFF74D
:1070A400C3FF0C430432B2F5907F4FEA4101EAD1A9
:1070B4004B4BD3F87C31012B0AD14FF4BE70FFF750
:1070C400B3FF4FF0A04344F00044D3F810350393CA
:1070D400E3B2D3B1434F01260025344210D0AB00B4
:1070E40003F1804303F5C043D3F81005D3F810151A
:1070F40057F8253023B1C1F30141C0F30420984768
:107104000135082D4FEA4606E7D1002C61DA00224A
:107114004FF0FF33CDE90423DFF8C880DFF8C890CF
:10712400002637464FF0A04B19F9014B631C45D09C
:10713400C4F3C2030122E5B204F03F0004F00704E3
:1071440002FA04F406AA134413F8042C224235D09C
:1071540008EB0002AD0992F9302058F822A0BAF1E8
:10716400000F09D1032D29D104A901930090FFF741
:1071740077FFDDE9000301E0032DF5D000F5E071B0
:1071840013F80C3C5BF821102342C1F3014105D0F4
:10719400022913D1032D0CD1294604E003290DD172
:1071A400032D06D1022100900136FFF749FF009814
:1071B400F6B2BAF1000F01D02946D0470137042FA7
:1071C400B2D136B14FF0A043039AD3F810359342AD
:1071D40002D107B0BDE8F08F0393049B05939DE7AC
:1071E40000600040201A0020701A0020014B1B6828
:1071F400184700BF7C1A002000F1804000F5E040F1
:10720400002382B0036003680193019B02B07047BE
:10721400F0B5524B524CD3F8043185B0002B3DD01D
:1072240094F82E204FF48270FFF7E6FF2AB394F807
:107234002F3013BB494AD2F80031002B32D04FF41F
:107244008070FFF7D9FF638B94F82D00834250D9E7
:1072540021891B1A9BB289B26383CB1A616801EB43
:107264004303C2F82C36C2F830064FF48270FFF79D
:10727400C3FF3A4B01225A6014E0636802932389E6
:10728400ADF80C30E36800218DF8041033BB23748F
:10729400236801A89847002384F82F3094F82E30EF
:1072A400002BC7D12D4BD3F810315BB14FF488704C
:1072B400FFF7A2FF0023237402238DF8043001A8F2
:1072C40023689847254BD3F81431EBB14FF48A70F7
:1072D400FFF792FF0023237405B0F0BD208B608379
:1072E40063602081E160002AD2D11C4B01221A6024
:1072F400CEE7BAD1E368012184F82F1013B100213D
:107304006183AEE76383B0E766694FF00047012508
:10731400002EE1D0B6FA86F227FA02F34632920042
:1073240026EA030602F1804303F5E0431B68002BC1
:10733400EED01046A2F58C72FFF75EFFD30882F000
:107344000402C2F380028DF808308DF804502368DB
:107354008DF8092001A89847DAE700BF00700040C3
:10736400841A002038B51D4B044693F82C0098BBB2
:107374001B4A19602178C2F8F0156178C2F8F41537
:10738400E5781874012183F82D00586183F82F00E3
:1073940083F82E5083F82C106FF00043C2F80833A2
:1073A4004FF48270FFF728FF4FF48070FFF724FF3B
:1073B400A3780C485B01DBB280F807338023C0F864
:1073C400803103600223C2F804330DB1C2F8041300
:1073D400C2F80015002038BD0820FCE7841A0020FC
:1073E4000070004000E100E070B52A4B1A7C02F006
:1073F400FF05002A4BD10A79012A9CBF264CC4F808
:10740400005500F10C0503EB4504247924B993F8E5
:107414002D40013483F82D4003EB4503CC790D7ADC
:107424008E781C715D714B7836021B0106F4E066A0
:1074340003F0300333430E7806F003063343CE786B
:10744400360306F480563343160406F4E026334329
:107454004E798979360506F480160906334301F01E
:1074640080710B430C4901EB0016000100F18040D0
:1074740000F5E040012AC6F81835C0F81455C0F8E4
:10748400104502D80123C1F80035002000E0112086
:1074940070BD00BF841A00200070004070B5324AED
:1074A400147C04F0FF03002C5CD1304C012503262E
:1074B4001574C4F80863C4F82C16C4F8305692F84E
:1074C4002D40AC420CD91D46190101F1804101F552
:1074D400E0410133082BC1F81455C1F81055F3D11C
:1074E40000F10C03000102EB430300F1804000F5BE
:1074F400E04019795B79C0F81435C0F810151B49C0
:1075040001230B604B6042F21073D1F8040108B9F7
:10751400013BFAD14FF48070FFF76EFE4FF4827096
:10752400FFF76AFE012C11D90F4800210B0103F16A
:10753400804303F5E0430131047F457FC3F81455CC
:107544000829C3F8104500F10200EFD192F82E107B
:10755400064B29B103210020C3F80413107470BD35
:107564000221F8E71120FAE7841A00200070004095
:10757400F0B51B4F8BB207EB001443EA0243C4F887
:107584001C35184B40005C6900F1010C4FF00046BB
:1075940011F5006F26FA0CF64FF0800505FA00F598
:1075A4000BBFB44334435C615C610CBFC7F8085340
:1075B400C7F8045340244FF000455969844025FA24
:1075C40000F040F2FF75AA42054A0BBF8143014314
:1075D400596159610CBFC2F80843C2F80443F0BDB5
:1075E40000700040841A002010B5124B1A7CF2B9C6
:1075F40000F10C0103EB4102127922B193F82D2022
:10760400013A83F82D2003EB410300249C800301FD
:1076140003F1804303F5E0430749C3F8144540F2FE
:10762400FF72C3F81045FFF7A3FF204610BD1120D9
:10763400FCE700BF841A002000F8FFFF08B5094BDF
:107644001B7853B10020FFF7C9FB0120FFF7C6FBED
:10765400BDE808400320FFF7C1BBBDE80840FFF7C1
:10766400C9BB00BFB41A0020F8B5794C237805468D
:107674001BB100232370FFF7E1FF172D00F2858073
:10768400DFE805F00C1717425364747D858A858AF8
:10769400929797979797C1C6CED6E1E1FFF7CEFFB1
:1076A4006C48FFF75DF96C4B002204461A702046C3
:1076B400F8BD0020FFF778FBF0B10020FFF78EFB48
:1076C400022D0CBF4FF4E1644FF47A64624B1D70D9
:1076D40000254FF400464FF47A5029464FF4FA42FD
:1076E4000023E4FB060101F0C9FC2A460146BDE87B
:1076F400F8405848FFF7ECB8FFF764FB022D0CBFC5
:10770400C8244FF4C874E1E70020FFF74DFB40B1F3
:107714000020FFF763FB4FF448744F4B03221A70A9
:10772400D6E7FFF74FFBC824F7E70020FFF73CFB41
:1077340038B10020FFF752FB4FF47A64464B042221
:10774400EDE7FFF73FFB4FF4C874F7E70020FFF7BE
:107754002BFB40B10020FFF741FB3F4B05221A7081
:10776400CD210022C3E7FFF72DFBF6E70020FFF74A
:107774005FFB394B06221A7000226621B7E700200E
:10778400FFF720FB344B07221A7000248FE70120F7
:107794002070FFF74DFBEFE701202070FFF748FB57
:1077A40000224FF40071A2E7FFF733FB2A4B0C22AF
:1077B400EAE72A482A4EFFF7D3F8D5F11105044623
:1077C4001CD0D8B9012D13D0C820454321464FF40D
:1077D40000474FF47A504FF4FA420023C5FB0701E7
:1077E40001F04CFC224601461C48FFF771F80446A0
:1077F4000220FFF7E7FA0123337058E70220FFF76E
:10780400EDFA0023F8E7FFF719FF134B1222BBE749
:10781400FFF714FF0020FFF7D5FA0F4B1322B3E74D
:10782400FFF70CFF0120FFF7CDFA0B4B1422ABE757
:10783400FFF704FF0020FFF7C5FA0120FFF7C2FAA3
:10784400054B1522A0E7FFF7E4FA034B1D709CE7F4
:10785400FC1A0020D81A0020FD1A0020B81A0020B3
:10786400B41A0020044B1B6813F0010301D0FFF786
:10787400FBBE1846704700BFF81A002072DF70473D
:1078840073DF704777DF704770477FB50D46164644
:10789400C4B22046FFF7A8FE0028FAD105238DF8CC
:1078A40004008DF805008DF807008DF809008DF8A7
:1078B4000C008DF8083001A9012320468DF80660DC
:1078C4008DF80A308DF80B50FFF78EFD04B070BDB3
:1078D400F0B5194A85B010685168127A06238DF8FC
:1078E400023001AB03C302241A70002705230325C9
:1078F400012612498DF8083068468DF803708DF81A
:1079040000408DF801508DF806408DF80A60FFF7AD
:1079140029FD01A93846FFF767FD01A930468DF816
:107924000B40FFF761FD01A920468DF80B50FFF7CE
:107934005BFD05B0F0BD00BF989302008D78020096
:10794400000000000128F8B5B8BF012001F0A6F935
:1079540043A3D3E9002300F0A7FF3E4B002200F02D
:10796400A3FF30A3D3E9002306460F4600F09CFF93
:10797400324604460D463B462CA1D1E9000100F0F5
:107984008FFF02460B462046294601F029F841ECB8
:10799400100B01F00BFA55EC104B10EE100A25A356
:1079A400D3E90023294600F07FFF22462B4600F04E
:1079B4007BFF22462B4600F077FF20A3D3E9002368
:1079C40006460F462046294600F06EFF1DA3D3E964
:1079D400002300F043FE02460B463046394600F0D1
:1079E4003DFE02460B4600201B4900F0F9FF17A399
:1079F400D3E9002300F054FF184B002200F054FF99
:107A040041EC100B01F0EAFA51EC100B01F020F9F3
:107A14006FF09F0300B29842B8BF18465F28A8BF12
:107A24005F20F8BD00000000006AF84014AE47E192
:107A34007A140A402FF5FEE6233D8A3E2FEEE52315
:107A4400936A303F443278B2A74C4D3F666666660F
:107A5400661271400000303F0000F03F000010400B
:107A64003333333333330340000000000128F8B5C7
:107A7400B8BF012001F012F9404B4FF0333200F04F
:107A840013FF3F4B002200F00FFF30A3D3E9002384
:107A940006460F4600F008FF324604460D463B46B4
:107AA4002CA1D1E9000100F0FBFE02460B46204662
:107AB400294600F095FF41EC100B01F077F955ECE5
:107AC400104B10EE100A25A3D3E90023294600F039
:107AD400EBFE22462B4600F0E7FE22462B4600F042
:107AE400E3FE20A3D3E9002306460F462046294699
:107AF40000F0DAFE1DA3D3E9002300F0AFFD024637
:107B04000B463046394600F0A9FD02460B460020DC
:107B14001C4900F065FF17A3D3E9002300F0C0FE61
:107B2400194B002200F0C0FE41EC100B01F056FA94
:107B340051EC100B01F08CF86FF09F0300B29842E7
:107B4400B8BF18465F28A8BF5F20F8BD000000003A
:107B5400006AF84014AE47E17A140A402FF5FEE6B5
:107B6400233D8A3E2FEEE523936A303F443278B2B8
:107B7400A74C4D3F66666666661271403333F33F29
:107B84000000303F0000F03F000010400128F8B52D
:107B9400B8BF012001F082F843A3D3E9002300F029
:107BA40083FE3E4B002200F07FFE30A3D3E9002386
:107BB40006460F4600F078FE324604460D463B4624
:107BC4002CA1D1E9000100F06BFE02460B462046D1
:107BD400294600F005FF41EC100B01F0E7F855ECE5
:107BE400104B10EE100A25A3D3E90023294600F018
:107BF4005BFE22462B4600F057FE22462B4600F041
:107C040053FE20A3D3E9002306460F462046294607
:107C140000F04AFE1DA3D3E9002300F01FFD024635
:107C24000B463046394600F019FD02460B4600204B
:107C34001B4900F0D5FE17A3D3E9002300F030FE62
:107C4400184B002200F030FE41EC100B01F0C6F995
:107C540051EC100B00F0FCFF6FF09F0300B2984250
:107C6400B8BF18465F28A8BF5F20F8BD0000000019
:107C7400006AF84014AE47E17A140A402FF5FEE694
:107C8400233D8A3E2FEEE523936A303F443278B297
:107C9400A74C4D3F66666666661271400000303F31
:107CA4000000F03F00001040333333333333E33FFD
:107CB40073B50D460DF106010446FFF7EFFBBDF960
:107CC4000600B0F5006F22DC66B204222946304675
:107CD400FFF7DBFD0DF106012046FFF7DFFBBDF9E1
:107CE4000600B0F5006F0FDC052229463046FFF789
:107CF400CCFD0DF106012046FFF7D0FBBDF90600CF
:107D0400FFF744FF02B070BDFFF7B0FEFAE7FFF7DC
:107D140019FEF7E708B5022201210020FFF7B5FD9F
:107D2400022211460120FFF7B0FD0222BDE80840FF
:107D340003211046FFF7A9BD70B54FF0A0454FF4DD
:107D4400806692B0C5F80865FFF7E4FF032001F0F0
:107D540007FA012104460020FFF7AAFF60382070CB
:107D640002210120FFF7A4FF603860700321022084
:107D7400FFF79EFF6038A0700323C5F80C653C2212
:107D84000F4DADF80430002103A8029401F0B1FABC
:107D94000423EA1829688DF80F30002603A88DF80B
:107DA4000C60CDF830D000F02DF932462946054854
:107DB400FFF764FD204612B0BDE8704001F018BA28
:107DC400AC180020BC18002070B54FF0804301228D
:107DD40092B0C3F87825FEF70FFE08B1FEF7FCFA5F
:107DE400FFF776FD032001F0BBF94FF0A045032611
:107DF40004460121C5F828670020FFF759FF6038C1
:107E0400207002210120FFF753FF60386070314673
:107E14000220FFF74DFF4FF480636038A070C5F86F
:107E24000C3500F003FB08B1FEF7D6FA002303A9D2
:107E34000120039300F08EFB08B1FEF7CDFA03A8EE
:107E440000F0E0FB08B1FEF7C7FA02942A4C0025C3
:107E540003233C22002103A8ADF8043001F049FAC1
:107E640004231822294620468DF80F308DF80C5033
:107E7400CDF830D001F03DFA204A65600523237027
:107E840052F8041B25754FF4A07303A8A360A581C1
:107E940000F0B8F808B1FEF79FFA174A17491848D6
:107EA400FFF7ECFC08B1FEF797FA154C0022217895
:107EB4000120FFF7E7FC20780121FFF7E1FC08B17E
:107EC400FEF78AFA0220FFF7CDFC08B1FEF784FA28
:107ED400FEF7BAFC0B4A0C480121FEF7E7FC08B197
:107EE400FEF77AFA094800224FF44061FEF7F0FCED
:107EF400FEF798FDFCE700BF001B0020AC18002033
:107F0400BC1800203D7D0200A4930200381B002011
:107F14006DDF704779DF70477DDF704764DF70473E
:107F24002DE9F04F85B000250E9CBDF83CB0B4F8A7
:107F340000A00191074690461E46A9463A884A4544
:107F44000DDC45B12388013BA3EB0A039BB2FF2B55
:107F54003AD806F80A30002005B0BDE8F08F7A68F8
:107F640052F82900039000220DF10B0103A8FFF73A
:107F7400D5FF0028F0D19DF80B20424521D122885D
:107F8400002D14BF0020022002EB080101445945D2
:107F94001ADC3DB9013292B2019B2280B35422888B
:107FA4000132228022880DF10B01324403A8FFF72D
:107FB400B5FF0028D0D121889DF80B200A442280E7
:107FC400012509F10109B9E70C20C5E72DE9F341C1
:107FD400089FBDF824801546CDE9007802220446A6
:107FE4001E46FFF79DFF50B933461022294620460E
:107FF400CDE9087802B0BDE8F041FFF791BF02B0C7
:10800400BDE8F0812DE9F04F00231788138090F824
:108014002D3085B006460D46144653B3082F01D8BB
:108024000C2027E102A8FFF773FF002840F022810B
:1080340023880822EA54238801339BB21B2223801D
:10804400EA542088013080B2208006220DF1090113
:10805400284401F025F923889DF8082006339BB2B3
:1080640012F0FE0218BF01222380EA542388013350
:108074002380B378FBB123880433BB42D0D802A851
:10808400FFF748FF002840F0F58023880322EA54D4
:10809400238801339BB219222380EA542388BDF834
:1080A400082001339BB2E9182380EA54120A4A706B
:1080B400238802332380F2789AB12388D91CB942E9
:1080C400AED80221E954238801339BB201212380D5
:1080D400E95423880B449BB22380EA5423880B443D
:1080E40023807268AAB12388D91CB94298D8022186
:1080F40092F90020E954238801339BB20A2123809A
:10810400E954238801339BB22380EA542388013342
:1081140023803389002B40F0A180338A5BB1CDE901
:1081240000472B460722032106F11000FFF74EFFFC
:10813400002840F09F80338B5BB1CDE900472B468C
:108144001522142106F11800FFF740FF002840F023
:108154009180326A002A40F09080D6F82480B8F1E9
:10816400000F30D0B8F804302188981C8A1C0244CF
:10817400BA423FF655AFFE283FF652AF03336B5475
:10818400238801339BB2FF222380EA5423880133DE
:108194009BB22380B8F80020EA54E918120A4A7006
:1081A4002088023080B22080B8F804205AB1D8F870
:1081B400081000296BD0284401F072F82388B8F81D
:1081C40004201344238096F82C30002B40F0988030
:1081D400307800284ED03388012B58D0228802F101
:1081E400020CBC453FF61CAF012805D1737802335D
:1081F40013449F42FFF414AF023FBF1ABFB202A957
:1082040005EB0C00ADF80870FFF786FE90BB3178E3
:10821400BDF80830022900F0B98072789A4202D37E
:108224009F4280F0B180012940F0B280974293B21E
:10823400C0F0AE80ADF808300821BDF80830FE2B40
:108244003FF6EEAE22880133AB542288013292B25B
:108254002280A9542288134423800BE0CDE90047EF
:108264002B460622022106F10800FFF7AFFE002884
:108274003FF453AF05B0BDE8F08FB4F800C00CF183
:108284000603BB423FF6CCAE1188052901D807206E
:10829400F0E76FF4486E01EB0E039BB24FF27D3EA4
:1082A4007345F4D95388052BF1D96FF44860181835
:1082B40080B27045EBD94FF6FF70814201D09942EC
:1082C400E5D8052305F80C30238801339BB212212D
:1082D4002380E954238801339BB223801188E95415
:1082E400E818090A4170238802339BB2238052881C
:1082F400EA54E918120A4A702388023323802CE7CF
:10830400B36A002BC3D04FF000084FF00C0A4FF0B3
:10831400160BB16A5FFA88F20AFB02F201EB02095A
:10832400B9F80430981CFE283FF67AAE208803334F
:108334002B54238801339BB2238005F803B0238890
:1083440001339BB223808A5AEA54E918120A4A700C
:108354002088023080B22080B9F804205AB1D9F8BC
:108364000810002993D0284400F09AFF2388B9F814
:1083740004201344238096F82C2008F101085FFAA6
:1083840088F39A42C5D823E7092156E79F42FBD2D6
:10839400ADF8087050E710DF7047000013B50446CD
:1083A40009496846FEF766FB019808B902B010BD9A
:1083B400D0E900212046904718B16846FEF764FBD7
:1083C400F2E71120F2E700BFAC93020013B50446B4
:1083D40007496846FEF74EFB019B0BB902B010BD7E
:1083E4002046D3E9002190476846FEF74DFBF3E7AA
:1083F400C49302000B4991F816335A09EC23134134
:10840400DB0706D5084B9A683AB94FF480030B6032
:10841400704742F20200FDF7DFBF1A6842F480029F
:108424001A60704700E100E0E8190020F7B51C4F1E
:108434003C7894BB1B4E012520463570FFF7AEFFF8
:10844400112827D02046FFF7C1FF174B8DF80340B2
:10845400186801900DF10300FEF792FA134901A880
:10846400FFF799FF0446B0FA80F0400938709DF890
:108474000300FEF7A9FA6CB90D4B34701C700D4B58
:10848400E02283F8162383F81523FFF7B3FF284669
:10849400FFF79CFF204603B0F0BD0824FAE700BFB5
:1084A400591B0020581B0020A8930200F963020006
:1084B4005A1B002000E100E0014B1878704700BF10
:1084C400591B002007B508496846FEF7D3FA019BFB
:1084D40013B903B05DF804FBD3E900209047684664
:1084E400FEF7D2FAF3E700BFB8930200FFF7EABF42
:1084F40060DF704769DF704761DF704730B5134B49
:108504001B7891B0FBB1124D34240DF1020103A884
:10851400ADF80240FFF7F0FF70B9294601A8FEF755
:10852400A9FA029B002BF0D003A8D3E900219047BD
:1085340001A8FEF7A9FAF4E7052804D011B0BDE8B4
:108544003040FDF749BF11B030BD00BF5B1B0020B8
:10855400D09302007FB504460D4600294DD0284B28
:108564000B600C22002101A800F0C3FE01260623A3
:108574002A68ADF8083001A920208DF804408DF850
:108584000660FFF7B7FF0C22002101A8002400F0C9
:10859400B0FE2A688DF8054001A94020ADF80640D8
:1085A400FFF7A8FF0C22214601A800F0A2FE2A68CA
:1085B4008DF8044001A93046FFF79CFF0C222146A8
:1085C40001A800F096FEF8232A68019301A9A120CE
:1085D400FFF790FF0C22214601A800F08AFE9DF8C7
:1085E40004302A6864F3000301A9A0208DF8043044
:1085F400FFF780FF204604B070BD0E20FBE700BFEC
:10860400A818002008B5FFF773FF10B9014B012229
:108614001A7008BD5B1B00204BDF70471FB50E4C62
:1086240001A8FFF7F9FF70B9214602A8FEF722FA64
:10863400039B002BF4D00198D3E90021904702A8B2
:10864400FEF722FAF4E7052804D004B0BDE8104090
:10865400FDF7C2BE04B010BDDC93020030B591EA50
:10866400030F00F18480841A71EB030C05D21219F4
:1086740053EB0C03001B71EB0C0140F2000CCFF622
:10868400E07C1CEA430F54D0BCEB410F61D90C0DC4
:10869400A4EB135E31EA0C0141F4801133EA0C03BC
:1086A40043F48013DEF1200C2AD303FA0CF54019AD
:1086B40041F1000122FA0EF5401923FA0EF5694141
:1086C40012FA0CF2CD0208D349085FEA30005FEADF
:1086D400320228BF42F001020134013C5FEA500C2F
:1086E40072F1004250F1000051EB04514FF40013B9
:1086F40013EB410F38BF30BD090D0905002030BD13
:10870400BEF1200EBEF1200F1ED223FA0EF5401941
:1087140041F10001CEF1200C124218BF012203FAEC
:108724000CF52A43CEE711EA5C0F04BF00200021B8
:1087340030BD1CEA410F04BF01F00041002030BDF0
:1087440001F00041002030BD21F4801101EB0451FF
:1087540030BD004218BF41F00101BCEB410F08BF1E
:1087640030BD4FF0FE4141F47801002030BD83F06C
:108774000043841A71EB030E07D28EF0004E001BE7
:1087840071EB0E01121953EB0E0340F2000CCFF6FD
:10879400E07C1CEA430FC6D0BCEB410F72D90C0D30
:1087A400A4EB135EC90241EA5051C00241F00041FA
:1087B400DB0243EA5253D20243F00043DEF1200CC1
:1087C40041D312FA0CF522FA0EF203FA0CF542EA3E
:1087D400050218BF42F0010223FA0EF3801A9941F0
:1087E400E30AC4F30A0411F0404F03D418D0013C47
:1087F40040004941013C23D44205C00A40EA4150AB
:10880400C90A51EAC3715FEA500C72F1004250F197
:10881400000051EB045130BD01002FD00020203C5A
:108824000029F9D0B1FA81FCDCF1200E11FA0CF127
:1088340030FA0EF510FA0CF02943A4EB0C04D9E736
:108844000020D90730BDAEF1200EBEF1200F0DD2AD
:10885400CEF1200C03FA0CF533FA0EF32A4318BFB9
:1088640043F00103C01A61F10001B9E721F00041AE
:10887400C00A40EA4150C90A01EB045130BD00204E
:10888400002130BD004218BF41F00101BCEB410F93
:108894007FF467AFBCEB430F3FF463AF30BD00BF61
:1088A40083F00043FFF7DABEF0B540F2FF7681EAC9
:1088B400030C16EA115E1EBFB64516EA1355B542FF
:1088C4005AD021EA465141F48011A1FB024723EA20
:1088D400465343F48013AE44A0FB03650CF0004CF4
:1088E40036197D41A1FB034747F10003A0FB0217A2
:1088F400F619654153F10003094218BF46F0010619
:1089040040F2FE74B3F5007F13D2AEF5806EA64537
:108914002BD24CEA0331280341EA155140EA1650A0
:108924003203450872F1004250F1000051EB0E5140
:10893400F0BDAEF2FF3EA64517D24CEAC321E802D1
:1089440041EA555140EA5650F202450872F100429C
:1089540050F1000051EB0E51F0BD0CF0004141F01C
:10896400FE4141F470010020F0BD1EEA0E0FF4D563
:108974000CF000410020F0BD16EA115F04BF01F0C5
:1089840000410020004218BF41F0010116EA135FC4
:1089940004BF03F000430022124218BF43F0010356
:1089A40006EA1354B44218BF9EEA060F03D00CF033
:1089B40000410020F0BD21F0004123F00043B1EB61
:1089C400065F06D8B3EB065F03D8002918BF002B57
:1089D400C3D140F20001C7F6F8710020F0BD00BF1A
:1089E4002DE9F04391EA030E0EF0004E40F2000729
:1089F400CFF6E07717EA41051EBF95EA070F17EA9D
:108A0400430595EA070F00F0A1807F0D17EA13567E
:108A140023EA475343F4801317EA115521EA4751D7
:108A240041F48011AD1B05F2FD354FEAD31C1CF156
:108A3400010C4FF00047B7FBFCF77F01A2FB079C3A
:108A44000024E3FB07C4DCF1000CD9F100097CF13C
:108A5400000CA0FB07620020E1FB072000275FEA6F
:108A6400C628E0FB0987760D46EAC226520DF619A0
:108A740000277A41E0FB0C625FEAC823E2FB093776
:108A84005FEA585848EAC628760D18EB0708002113
:108A94004E41E2FB0C8602EBC020DA02E6FB092120
:108AA4005B0D43EAC8235FEA58585B18002758EB6C
:108AB4000708E6FB0C38D102E8FB0917520D42EA1D
:108AC400C3225B0DD21900277B41E8FB0C2308EB82
:108AD400C6265FEAC128E3FB0987490D41EAC221A2
:108AE400520DC91942F10002E3FB0C12470019EBC5
:108AF40008095CEB010C72EB040453EBC62047EB52
:108B040056530026B3F5000F7641AD190236D6F15F
:108B1400200910FA09F4F04013FA09F21043F34063
:108B2400E40F001943F10003B3F5001F24BF5B08F1
:108B3400013540F2FE77BD4204D24EEA0551194494
:108B4400BDE8F0832D4224D5714626E0004218BFCB
:108B540041F00101124218BF43F00103B7EB410F8A
:108B64002CBFB7EB430F1BE0B7EB410F04BFB7EBD0
:108B7400430F15E017EA410F04BF17EA430F0FE054
:108B840017EA410FE0D017EA430F02D0B7EB430FC7
:108B9400DAD04EF0FE4141F470010020BDE8F083CC
:108BA40040F20001C7F6F871F7E700BF4FF4001C6C
:108BB4001CEB410F98BF1CEB430F0CD850EA410C3F
:108BC40008BF52EA430C08D0904208BF99420CBF38
:108BD400012000207047002070470120704700BF2B
:108BE4004FF4001C1CEB410F98BF1CEB430F11D832
:108BF40051EA030C50EA4C0C5CEA020C0AD004D291
:108C040082428B4180414042704790429941804169
:108C140040427047002070474FF4001C1CEB410F8A
:108C240098BF1CEB430F11D851EA030C50EA4C0CCB
:108C34005CEA020C0AD004D290429941804140423D
:108C4400704782428B418041404270470020704708
:108C5400C1F30A5340F21E42D21A0EDD202A0AD86A
:108C6400CB0243EA505040F00040D04090EAE1701B
:108C7400B0EBE1707047002070474B00004218BF12
:108C840043F0010313F5001F88BF21F0004111F0E8
:108C9400004058BF6FF00040704700BF80B110F033
:108CA400004248BFD0F10000120D02F21D42B0FA9A
:108CB40080F18840521AC30A400503EB0251704701
:108CC4000100704751EC100B0128494111F5001FB8
:108CD4008CBF0120002070472DE9F04155EC104B6A
:108CE4008046002210EE100A0023294610EE106A76
:108CF400FFF75CFF30B1002345EC104BC8F800309F
:108D0400BDE8F08125F0FF4323F4E00343F07F57EF
:108D1400C5F30A5347F40017A3F2FE3347EC106B74
:108D2400C8F80030BDE8F081000000002DE9704370
:108D340055EC104B0646002210EE100A002329467B
:108D440010EE108AFFF732FFB0B9C5F30A5333446B
:108D540040F2FE72934213DC002E01DB002B0FDB8A
:108D6400002B09DD25F0FF4222F4E00242EA035918
:108D740049EC108BBDE870839FED060BBDE8708352
:108D840000F0E4F9074B1B6803609FED040BBDE89A
:108D9400708300BF0000000000000000000000001D
:108DA4000000F07FE8930200000000002DE9F04F7E
:108DB40085B055EC104BFFF785FF002840F0C380C9
:108DC4000022002320462946FFF7F0FE002840F049
:108DD400BF800022002320462946FFF71DFF0028FC
:108DE40040F0B18045EC104B03A8FFF775FF55EC3C
:108DF400104B78A3D3E9002310EE100A2946FFF79D
:108E0400EFFE002840F0A9800399704B4E1E2046C7
:108E1400294600220396FFF743FD04460D4645EC20
:108E2400104B4FF0FF30FFF781FF684B51EC100BF4
:108E34000022FFF713FC02460B4620462946FFF7A3
:108E4400CFFD02460B4606460F46FFF72DFD4BA30A
:108E5400D3E9002304460D46FFF726FD49A3D3E9D1
:108E64000023FFF7FBFB49A3D3E90023804689468F
:108E740020462946FFF714FD22462B46FFF714FD32
:108E840044A3D3E90023FFF7E9FB42464B4682465D
:108E94008B4620462946FFF707FD40A3D3E900236C
:108EA400FFF7FEFC52465B4680468946204629462B
:108EB400FFF7FAFC3BA3D3E90023FFF7F1FC0246DA
:108EC4000B4640464946FFF78BFD02460B462046BB
:108ED4002946FFF7E9FC32463B46FFF7E5FC02462C
:108EE4000B460398CDE90023FFF7D8FEDDE9002304
:108EF40004460D4630463946FFF7B0FB2BA3D3E9B1
:108F0400002306460F4620462946FFF7CDFC0246BD
:108F14000B4630463946FFF7A1FB02460B46204676
:108F2400294614461D4623A3D3E90023FFF7BCFCBE
:108F340002460B4620462946FFF790FB41EC100BF6
:108F440005B0BDE8F08F9FED1D0B05B0BDE8F08FB7
:108F54009FED1C0B05B0BDE8F08F0022204629468A
:108F64001B4BFFF79DFC024645EC104B4FF0FF30C6
:108F740014460D4657E700BFAFF3008029BD56B332
:108F84001544E9BFEDAF16204A6230400FCE674B5F
:108F940080D541407E2615FA838073409AB5B3127A
:108FA400FF07504077900D9CFE0B8840A80C615C35
:108FB40010D02BBF000000000030E63F000000008E
:108FC4000000F87F000000000000F0FF0000E03F18
:108FD4000000F03FCD3B7F669EA0E63F53EC102B94
:108FE400C3F30A5CACF2FF31132910B510EE100A7A
:108FF4009E4622DC002909DB1F4C44FA01FC03EAEB
:109004000C04204310D143EC102B10BD03F0004E90
:10901400013104BF4EF07F5E4EF4401E00207346C3
:10902400024643EC102B10BD4FF4002343FA01F128
:109034008E442EEA0C0E0020F1E7332908DDB1F549
:10904400806FE0D11946FFF709FB41EC100B10BD0E
:10905400ACF2134C4FF0FF3424FA0CFC12EA0C0F60
:10906400D1D00123C1F1330103FA01F1401828BF23
:109074009E4420EA0C00D2E7FFFF0F0053EA020CE3
:1090840061D02DE9F04BB3FA83F51E0007BFB2FAA5
:1090940082F502FA05F403FA05F41646C5F1200533
:1090A4001EBF22FA05F73C43203556EA044C4FEA2A
:1090B400144418BF0134A3464FF00009C846904237
:1090C40071EB030C39D3094207BFB0FA80F700FAF9
:1090D40007F6B1FA81F701FA07F6C7F120071EBFB8
:1090E40020FA07FC46EA0C062037B6FBFBFC7F1B84
:1090F400103F07F01F04C4F120060CFA04F42CFA04
:1091040006F644BF34460026202FA4BF264600247A
:1091140054EA060C08BF012418EB040849EB0609BD
:10912400A4FB027CC01B06FB02CC04FB03CC71EB4A
:109134000C01904271EB030CC5D20B460246494622
:109144004046BDE8F08BB2FBF3F2000000B5FDF73A
:109154003FF9024B18445DF804FB00BF080000000F
:1091640038B5204B204A9B1A102B39D9044600F0FD
:10917400F3F804F1130020F00F021C4B186858B3E5
:109184004FF0FF340025294611E041B103680B601C
:10919400044644F8042B00F0E0F8204638BD01688A
:1091A400124B1960F4E70368014653B1184643684B
:1091B4009342EAD09342F6D9A3423CBF1C460546EB
:1091C400F1E74DB16B689B1A6B60A31AEC18EA5077
:1091D40000F0C3F80434E0E700F0BFF80024DCE753
:1091E4000024DAE7603B0020601B0020C018002048
:1091F40000284DD038B50446264B98423BD3264B25
:10920400984238D800F0A8F8221F54F8040C234BD5
:109214001B68ABB193422FD219461B6803B39A4221
:10922400FAD844F8043C20600A60104483421CD1FC
:1092340020685D68284420601B6844F8043C24E0EE
:10924400164B1A60002344F8043C206011E000210E
:10925400EEE7226813444B6054F8043C0B6008E0CA
:10926400002344F8043C20600A604B68C81882421A
:10927400EFD000F072F838BD44F8043C2060074990
:109284000A6010448342E2D000210029F1D0ECE7C7
:10929400704700BF601B0020603B0020C018002006
:1092A400844640EA010313F0030F18D18446202AB0
:1092B4000BD32DE9F007B1E8F807A0E8F807A2F10D
:1092C4002002202AF7D2BDE8F007042A07D351F878
:1092D400043B40F8043BA2F10402042AF7D2002A1A
:1092E40005D011F8013B00F8013B013AF9D1604681
:1092F40070478446002A2DD010F0030F04D000F8E4
:10930400011B013A26D0F7E7C9B241EA012141EA3B
:109314000141202A12D3A2F120022DE9F0030B46C9
:109324000C460D460E460F4688468946A0E8FA03C9
:10933400203AFBD2BDE8F00320320BD0042A05D337
:1093440040F8041B043A05D0042AF9D200F8011BA2
:0C935400013AFBD160467047704770473B
:08936000996E020000000000FC
:08936800196F02000000000073
:1093700001850200000000002186020000000000BC
:109380000338FDD87047000068930200689302001C
:10939000040000001112131400000000020000017C
:1093A00000000000381B002001000007809302002D
:1093B0008093020008000000709302008093020076
:1093C000080000006893020070930200080000008B
:1093D0006893020068930200080000006093020096
:0C93E0006893020008000000220000005A
:1093EC000090D003181B00201F000000000000009C
:0C93FC0000000000FF000000601B0020CB
:040000032000637501
:00000001FF
